:100A4C0011083F065B4F666D7D077F6F777C395EC3
:030A5C00797100AD
:060A6000F5807F647E00BA
:0B0A6600EF1FAC0670011E4C70F62262
:100A2C00E4FDFCC3ED9FEC9E5015E4FBFA0BBB0000
:0F0A3C00010ABA03F8BBE8F50DBD00010C80E418
:010A4B002288
:10099E00EE7050EFB40800504A9009AEF828287354
:1009AE000209C60209CA0209CE0209D20209D602FA
:1009BE0009DD0209E40209EBC2A4800EC2A4801173
:1009CE00C2A48014C2A48017D2A4C2A3C2A222D2EF
:1009DE00A4C2A3D2A222D2A4D2A3C2A222D2A4D2B1
:0409EE00A3D2A222CC
:0609F2008B198A1A891B13
:1009F800751C00751D07AF1DAE1C12099EE4F5801D
:100A0800AB19AA1AA91B851D82851C83120800121E
:100A18000A60E51D151D7002151CC3E51C64809451
:030A28008050D328
:010A2B0022A8
:10094400E4F51EF51FE4F520F5217B077A00E51F89
:100954002BFFE51E3AFE7C007D0812082DAE04AF85
:100964000512099EE4F580C374079B2408F8E61277
:100974000A60EB1B70011ABAFFD4BBFFD10521E555
:100984002170020520C39450E5206480948040BA0D
:0A099400051FE51F70AF051E80ABC4
:030000000208B83B
:0C08B800787FE4F6D8FD7581210208FF6E
:10080000BB010CE58229F582E5833AF583E02250AD
:1008100006E92582F8E622BBFE06E92582F8E222F7
:0D082000E58229F582E5833AF583E4932211
:10082D00C2D5EC30E709B2D5E4C39DFDE49CFCEEE6
:10083D0030E715B2D5E4C39FFFE49EFE120863C3F3
:10084D00E49DFDE49CFC800312086330D507C3E4EE
:06085D009FFFE49EFE2255
:1008C400020944E493A3F8E493A34003F68001F2FD
:1008D40008DFF48029E493A3F85407240CC8C33335
:1008E400C4540F4420C8834004F456800146F6DF04
:1008F400E4800B0102040810204080900A4CE47E3E
:10090400019360BCA3FF543F30E509541FFEE493F8
:10091400A360010ECF54C025E060A840B8E493A3BF
:10092400FAE493A3F8E493A3C8C582C8CAC583CAEA
:10093400F0A3C8C582C8CAC583CADFE9DEE780BEA2
:010A5F000096
:10086300BC000BBE0029EF8DF084FFADF022E4CC79
:10087300F875F008EF2FFFEE33FEEC33FCEE9DEC42
:10088300984005FCEE9DFE0FD5F0E9E4CEFD22ED88
:10089300F8F5F0EE8420D21CFEADF075F008EF2FD2
:1008A300FFED33FD4007985006D5F0F222C398FDC3
:0508B3000FD5F0EA2260
:00000001FF
