:10088100E4FDFCC3ED9FEE6480F8EC6480985015A4
:10089100E4FBFA0BBB00010ABA03F8BBE8F50DBD96
:0508A10000010C80DEE7
:0108A600222F
:04093B007F147E00A7
:06093F0075A0FF02088113
:0408A7008E088F091F
:1008AB007901900000E9F4F5A0AF09AE08120881B8
:0D08BB00E925E0F9A3E5826408458370E8B3
:0108C800220D
:0408C9008E088F09FD
:1008CD007980900000E9F4F5A0AF09AE0812088117
:0D08DD00E9C313F9A3E5826408458370E8C0
:0108EA0022EB
:040800008E088F09C6
:10080400750A107908900000E50A49F452A0AF096E
:10081400AE08120881E50A25E0F50AE9C313F9A335
:08082400E5826404458370E0E5
:01082C0022A9
:04082D008E088F0999
:10083100750A107908900000E50A49F4F5A0AF099E
:10084100AE08120881E50A25E0F50AE9C313F9A308
:08085100E5826404458370E0B8
:01085900227C
:0408EB008E088F09DB
:1008EF007901900000E9F452A0AF09AE0812088117
:0D08FF00E925E0F9A3E5826408458370E86F
:01090C0022C8
:04090D008E088F09B8
:100911007980900000E9F452A0AF09AE0812088175
:0D092100E9C313F9A3E5826408458370E87B
:01092E0022A6
:10085A007F147E001208A712093B1208C912093B2D
:10086A0012080012093B12082D12093B1208EB125A
:07087A00093B12090D80D9B2
:0300000002092FC3
:0C092F00787FE4F6D8FD75810A02085AB2
:00000001FF
