:03000000020800F3
:0C080000787FE4F6D8FD75811E020847E1
:10097400110E3F065B4F666D7D077F6F0000000020
:0F098400000000020A0000020C00000208000040
:10099400FC7D0A12088C740E2FF8E6F5807F647EC5
:0109A4000052
:0B09A500EF1FAC0670011E4C70F62224
:1008E100C2A4C2A3C2A2AE0AAF0B7C007D0A120849
:1008F1008C740E2D12099DE4F580C2A4C2A3D2A26C
:10090100AE0AAF0B120994E4F580D2A4C2A3C2A22D
:10091100AE0CAF0DFC7D0A12088C740E2D12099DD0
:10092100E4F580D2A4C2A3D2A2AE0CAF0D120994F9
:04093100E4F5802247
:1009B000438901758CFB758ACAD2A9D2AFD28C2229
:0A09C000C2A51209B01208E180FB85
:03000B00020935B2
:04093500C0E0C0D08E
:10093900758CFC758A180509E50970020508B4E883
:1009490025E508B40320750800750900050BE50BBA
:100959007002050A643C450A700CF50AF50B050D91
:06096900E50D7002050C13
:05096F00D0D0D0E03201
:10080C000209C0E493A3F8E493A34003F68001F239
:10081C0008DFF48029E493A3F85407240CC8C333ED
:10082C00C4540F4420C8834004F456800146F6DFBC
:10083C00E4800B0102040810204080900974E47ECF
:10084C00019360BCA3FF543F30E509541FFEE493B1
:10085C00A360010ECF54C025E060A840B8E493A378
:10086C00FAE493A3F8E493A3C8C582C8CAC583CAA3
:10087C00F0A3C8C582C8CAC583CADFE9DEE780BE5B
:010993000063
:10088C00BC000BBE0029EF8DF084FFADF022E4CC50
:10089C00F875F008EF2FFFEE33FEEC33FCEE9DEC19
:1008AC00984005FCEE9DFE0FD5F0E9E4CEFD22ED5F
:1008BC00F8F5F0EE8420D21CFEADF075F008EF2FA9
:1008CC00FFED33FD4007985006D5F0F222C398FD9A
:0508DC000FD5F0EA2237
:00000001FF
