:030000000208648F
:0C086400787FE4F6D8FD75810702088952
:0508890012087B80FE57
:03000300020800F0
:10080000C0E0C0F0C083C082C0D075D000C000C0BE
:1008100001C002C003C004C005C006C0077FE87E57
:100820000312087020B202B2A0D007D006D005D0C3
:1008300004D003D002D001D000D0D0D082D083D059
:04084000F0D0E032E2
:07087B00D288D2A8D2AF22FF
:07088200D28AD2AAD2AF22F4
:10084400E4FDFCC3ED9FEC9E5015E4FBFA0BBB00EA
:0F085400010ABA03F8BBE8F50DBD00010C80E402
:010863002272
:0B087000EF1FAC0670011E4C70F6225A
:00000001FF
