:100A580011083F065B4F666D7D077F6F777C395EB7
:030A6800797100A1
:0B0A6C00EF1FAC0670011E4C70F6225C
:100A3800E4FDFCC3ED9FEC9E5015E4FBFA0BBB00F4
:0F0A4800010ABA03F8BBE8F50DBD00010C80E40C
:010A5700227C
:10099E00EE7050EFB40800504A9009AEF828287354
:1009AE000209C60209CA0209CE0209D20209D602FA
:1009BE0009DD0209E40209EBC2A4800EC2A4801173
:1009CE00C2A48014C2A48017D2A4C2A3C2A222D2EF
:1009DE00A4C2A3D2A222D2A4D2A3C2A222D2A4D2B1
:0409EE00A3D2A222CC
:0A0944008B1F8A2089218C228D234D
:10094E00E4F526F527C374079527FFE49526FE12D6
:10095E00099EE4F580E5252527FFE5243526FEAC26
:10096E0022AD2312082DAB1FAA20A9218D828C83C4
:10097E00120800F5807F327E00120A6C0527E527EB
:0F098E0070020526C39408E5266480948040B665
:01099D002237
:1009F200E4F519F51AE4F51BF51C7B007A00790879
:100A0200851924851A257D107C00120944051CE5F0
:100A12001C7002051BD39496E51B6480948040DA17
:100A2200E51A2401FFE43519FE7C007D10120882CC
:060A32008C198D1A80BF33
:030000000208B83B
:0C08B800787FE4F6D8FD7581270208FF68
:10080000BB010CE58229F582E5833AF583E02250AD
:1008100006E92582F8E622BBFE06E92582F8E222F7
:0D082000E58229F582E5833AF583E4932211
:10082D00BC000BBE0029EF8DF084FFADF022E4CCAF
:10083D00F875F008EF2FFFEE33FEEC33FCEE9DEC78
:10084D00984005FCEE9DFE0FD5F0E9E4CEFD22EDBE
:10085D00F8F5F0EE8420D21CFEADF075F008EF2F08
:10086D00FFED33FD4007985006D5F0F222C398FDF9
:05087D000FD5F0EA2296
:10088200C2D5EC30E709B2D5E4C39DFDE49CFCEE91
:1008920030E715B2D5E4C39FFFE49EFE12082DC3D4
:1008A200E49DFDE49CFC800312082D30D507C3E4CF
:0608B2009FFFE49EFE2200
:1008C4000209F2E493A3F8E493A34003F68001F24F
:1008D40008DFF48029E493A3F85407240CC8C33335
:1008E400C4540F4420C8834004F456800146F6DF04
:1008F400E4800B0102040810204080900A58E47E32
:10090400019360BCA3FF543F30E509541FFEE493F8
:10091400A360010ECF54C025E060A840B8E493A3BF
:10092400FAE493A3F8E493A3C8C582C8CAC583CAEA
:10093400F0A3C8C582C8CAC583CADFE9DEE780BEA2
:010A6B00008A
:00000001FF
