:03000000020B7B75
:0C0B7B00787FE4F6D8FD75817C020BC287
:100F2A00112F3F065B4F666D7D077F6F777C395EB9
:100F3A0079710002410001024300010140000208E8
:060F4A000000020A000095
:100F57007B007A00790C120EBF120FA9120FB97B12
:100F6700007A00790C120DED7F407E4B120F9880AE
:010F7700EE8B
:03000B00020C9153
:100C9100C0E0C0F0C083C082C0D075D000C000C029
:0D0CA10001C002C003C004C005C006C007AA
:100CAE00758CFC758A180509E50970020508E54280
:100CBE002403FFE43541FEE4FCFD7BFF7AFFF9F8E7
:100CCE00120E3FAE02AF038E418F42C3E50994036D
:100CDE00E50894004019750800750900120D188F6B
:0F0CEE0040E540600A7B007A00790CFD120E830E
:100CFD00D007D006D005D004D003D002D001D0004B
:0B0D0D00D0D0D082D083D0F0D0E032F4
:03001B00020C07CD
:100C0700C0E0C0F0C083C082C0D075D000C000C0B3
:0D0C170001C002C003C004C005C006C00734
:100C2400758CFC758A18050BE50B7002050AE54402
:100C34002401FFE43543FEE4FCFD7BFF7AFFF9F871
:100C4400120E3FAE02AF038E438F44C3E50B9414E0
:100C5400E50A9400401C750A00750B0078517C006D
:100C64007D007B007A00790C7E007F231208D0126D
:020C74000D97DA
:100C7600D007D006D005D004D003D002D001D000D2
:0B0C8600D0D0D082D083D0F0D0E0327C
:060F5000017B00017C01A1
:100FA900438901758CFC758A18D2A9D2AFD28C22DB
:100FB900438901758DFC758B18D2ABD2AFD28E22C5
:020EF6008F79F2
:100EF800E4F57AF57AE579C4131313540124FF92C3
:100F0800B4E57925E0F579C2B6120F94D2B6120F7E
:100F180094057AE57AC3940840DBD2B5120F94C2DF
:010F2800B513
:010F290022A5
:100F78008B768A7789781208F6FF120EF6AB76AA76
:0C0F880077A97890000112090FF5802273
:040F94007F017E005B
:100F9800EF25E0FFEE33FEEF1F70011E144E70F7D1
:010FA8002226
:100D180075900FE57C64017068E590640F6062E48B
:100D2800F57C7FE87E03120F98E590640F602775C5
:100D3800900FAF90EF24F5601024FE60111460133B
:100D480024077012757B01800D757B028008757B06
:100D5800038003757B047590F0AF90EF2450601109
:100D680024E0601124F0601124707020857B7B8062
:100D78001B7404800674088002740C257BF57B8044
:0E0D88000BE590B40F03757C01E4F57BAF7BA7
:010D9600223A
:020FC900000026
:100EBF00E412093C90000175F0011209A89000217D
:100ECF00E475F0021209A8900003740212094E9003
:100EDF000004740612094E900005740112094E9019
:070EEF000006740602094E23
:0A0AA3008B488A49894A8C4B8D4C20
:100AAD00E4F54FF550AB48AA49A94A900021120927
:100ABD007024FFFFE5F034FFFEC3E5509FE54F9E28
:100ACD005031E55025E0FFE54F33FEE92FF9EA3EC1
:100ADD00FA90000312090F90000512094E900004C0
:100AED0012090F90000612094E0550E55070B6051B
:100AFD004F80B2C3E54B9400501CAB48AA49A94A9C
:100B0D0090000312090FFF70047F078003EF14FF9D
:100B1D00900003EF8017AB48AA49A94A9000031231
:100B2D00090FFFE54C2FFFEF540790000312094EFC
:100B3D00C3E54D9400501CAB48AA49A94A90000446
:100B4D0012090FFF70047F078003EF14FF9000045C
:100B5D00EF8017AB48AA49A94A90000412090FFF6C
:0D0B6D00E54E2FFFEF540790000412094ED3
:010B7A002258
:100DED008B458A4689471208F61460131460201447
:100DFD00602D2403703BE4F54DF54E7D01802EAB47
:100E0D0045AA46A947E4F54DF54E74FFFD801EAB8E
:100E1D0045AA46A947754D00754E01E4FD800EAB00
:100E2D0045AA46A94774FFF54DF54EE4FDFC120A9F
:020E3D00A322EE
:100D9700E478747C00FD7BFF7A0F79C9FE7F02122D
:100DA70008D0E4FFEFC39573E49572502DEF25E06B
:100DB7002454F8E6FE7401A806088002C333D8FC61
:100DC7004274EF25E02455F8E6FE7401A806088072
:100DD70002C333D8FC42750F80CA6375FF7B007A64
:060DE700007974020F7890
:100E8300ED24FB601F24FE602624FD600E24087001
:100E93002A1208F664016023E4801D1208F6601B21
:100EA300740180141208F66403601074028009123E
:0C0EB30008F664026005740312093C227A
:100B8700020F57E493A3F8E493A34003F68001F21E
:100B970008DFF48029E493A3F85407240CC8C3336F
:100BA700C4540F4420C8834004F456800146F6DF3E
:100BB700E4800B0102040810204080900F2AE47E95
:100BC700019360BCA3FF543F30E509541FFEE49333
:100BD700A360010ECF54C025E060A840B8E493A3FA
:100BE700FAE493A3F8E493A3C8C582C8CAC583CA25
:100BF700F0A3C8C582C8CAC583CADFE9DEE780BEDD
:010F5600009A
:10080000E709F608DFFA8046E709F208DFFA803EDA
:1008100088828C83E709F0A3DFFA8032E309F608C7
:10082000DFFA8078E309F208DFFA807088828C832F
:10083000E309F0A3DFFA806489828A83E0A3F608E3
:10084000DFFA805889828A83E0A3F208DFFA804CBD
:1008500080D280FA80C680D4806980F28033801094
:1008600080A680EA809A80A880DA80E280CA8033FD
:1008700089828A83ECFAE493A3C8C582C8CCC58375
:10088000CCF0A3C8C582C8CCC583CCDFE9DEE78045
:100890000D89828A83E493A3F608DFF9ECFAA9F0C4
:1008A000EDFB2289828A83ECFAE0A3C8C582C8CC1A
:1008B000C583CCF0A3C8C582C8CCC583CCDFEADE33
:1008C000E880DB89828A83E493A3F208DFF980CC95
:1008D00088F0EF60010E4E60C388F0ED2402B4048E
:1008E0000050B9F582EB2402B4040050AF23234535
:0608F00082239008507302
:1008F600BB010689828A83E0225002E722BBFE0200
:09090600E32289828A83E4932232
:10090F00BB010CE58229F582E5833AF583E022509D
:10091F0006E92582F8E622BBFE06E92582F8E222E7
:0D092F00E58229F582E5833AF583E4932201
:10093C00BB010689828A83F0225002F722BBFE019A
:02094C00F32294
:10094E00F8BB010DE58229F582E5833AF583E8F0DF
:10095E00225006E92582C8F622BBFE05E92582C88B
:02096E00F22273
:10097000BB0110E58229F582E5833AF583E0F5F0C5
:10098000A3E0225009E92582F886F008E622BBFEA2
:100990000AE92582F8E2F5F008E222E5832AF583E8
:0809A000E993F5F0A3E99322AD
:1009A800F8BB0111E58229F582E5833AF583E8F081
:1009B800E5F0A3F0225009E92582C8F608A6F0223E
:0D09C800BBFE09E92582C8F2E5F008F22225
:100E3F00C2D5E830E70FB2D5E4C39BFBE49AFAE4DE
:100E4F0099F9E498F8EC30E717B2D5120E75120A3B
:100E5F0011E4C39BFBE49AFAE499F9E498F8800350
:100E6F00120A1130D50DE4C39FFFE49EFEE49DFDF1
:040E7F00E49CFC22D1
:1009D50075F008758200EF2FFFEE33FECD33CDCCD9
:1009E50033CCC58233C5829BED9AEC99E58298405C
:1009F5000CF582EE9BFEED9AFDEC99FC0FD5F0D639
:100A0500E4CEFBE4CDFAE4CCF9A88222B800C1B962
:100A15000059BA002DEC8BF084CFCECDFCE5F0CBA0
:100A2500F97818EF2FFFEE33FEED33FDEC33FCEBD9
:100A350033FB10D703994004EB99FB0FD8E5E4F994
:100A4500FA227818EF2FFFEE33FEED33FDEC33FC81
:100A5500C933C910D7059BE99A4007EC9BFCE99A75
:100A6500F90FD8E0E4C9FAE4CCFB2275F010EF2FBA
:100A7500FFEE33FEED33FDCC33CCC833C810D707BA
:100A85009BEC9AE899400AED9BFDEC9AFCE899F8F5
:0E0A95000FD5F0DAE4CDFBE4CCFAE4C8F92288
:00000001FF
