:03000000020800F3
:0C080000787FE4F6D8FD758113020847EC
:0E090600080A010204081020408002080000C8
:02088C008F12C9
:10088E00E4F513F513E512C4131313540124FF9268
:10089E00B4E51225E0F512C2B61208F1D2B612086E
:1008AE00F10513E513C3940840DBD2CD1208F1C253
:0108BE00CD6C
:0108BF002216
:1008C000758080E4F508F509E4FF12088C740A25A8
:1008D00009F8E6FF12088C7F507EC31208F505095F
:1008E000E50970020508C39408E508940040D98022
:0108F000D235
:0408F1007F017E0005
:1008F500EF25E0FFEE33FEEF1F70011E144E70F77B
:0109050022CF
:10080C000208C0E493A3F8E493A34003F68001F23A
:10081C0008DFF48029E493A3F85407240CC8C333ED
:10082C00C4540F4420C8834004F456800146F6DFBC
:10083C00E4800B0102040810204080900906E47E3D
:10084C00019360BCA3FF543F30E509541FFEE493B1
:10085C00A360010ECF54C025E060A840B8E493A378
:10086C00FAE493A3F8E493A3C8C582C8CAC583CAA3
:10087C00F0A3C8C582C8CAC583CADFE9DEE780BE5B
:0109140000E2
:00000001FF
