:03000000020E9D50
:0C0E9D00787FE4F6D8FD758107020EE4B2
:0E121B00420066000141006B0042003F0000EF
:100FAD00E490006AF0900066E0FEA3E0FF7C007D17
:100FBD00071209701211F3EF5407900068F09000BA
:100FCD0066E0FEA3E0FF1211F3EF5407900069F005
:100FDD007B017A00794112108D12123278007C005B
:100FED007D017B017A0079417E007F251208D07842
:100FFD00257C007D017B017A0079687E007F0312DC
:10100D0008D0120D5090006AE0B401D07B017A0037
:0F101D007968900066E0FCA3E0FD12102C80BD06
:03001B00020C874D
:100C8700C0E0C0F0C083C082C0D075D000C000C033
:0D0C970001C002C003C004C005C006C007B4
:100CA400758DD5758B24900040E004F0700690009B
:100CB4003FE004F0900066E0FEA3E0FF7C007D1DB1
:100CC400120970EF241DFFEF5407FF900066E4F053
:100CD400A3EFF090003FE0FEA3E0FF7D0512098240
:100CE400ED4C7015120E0390006BEFF0600B7B015E
:100CF4007A007941E0FD12111D900042E0FEA3E06C
:100D0400FFC374F49FFF74019EFEC3900040E09FF4
:100D140090003FE09E401AE4F0A3F07B0190003382
:100D240004F0A37400F0A37468F07A007941120B04
:010D3400AF0F
:100D3500D007D006D005D004D003D002D001D00012
:0B0D4500D0D0D082D083D0F0D0E032BC
:08122900410094004100950111
:10123200438901758DD5758B24D2ABD2AFD28E2264
:0511590090002EEFF0F4
:10115E00E4A3F0F090002EE0FFC413131354012407
:10116E00FF92B4EF25E0F0C2B6121242D2B61212BE
:10117E004290002FE004F0E0C3940840D7D2B5129D
:04118E001242C2B592
:01119200223A
:1011930090002BEBF0A3EAF0A3E9F090002BE0FB27
:1011A300A3E0FAA3E0F91208F6FF12115990002BFD
:1011B300E0FBA3E0FAA3E0F990000112090FF58028
:0111C3002209
:041242007F017E00AA
:0A124600EF1F70011E144E70F72216
:100E030075900F900095E064017079E590640F6030
:100E130073E4F0E590640F603375900FAF90EF24A7
:100E2300F5601324FE601714601C2407701E9000E5
:100E3300947401F080169000947402F0800E900078
:100E4300947403F080069000947404F07590F0AFEE
:100E530090EF2450601324E0601824F0601D247088
:100E63007032900094E0F0802B900094E02404F022
:100E73008022900094E02408F08019900094E024EC
:100E83000CF08010E590B40F069000957401F0E427
:090E9300900094F0900094E0FF3F
:010E9C002233
:1011F300900005E4F0A37411F0A3E4F0A3741DF0D0
:101203007D117C00120970EF241DFFE43EFE7D0872
:07121300120982AE04AF05D1
:01121A0022B1
:0212500000009C
:10108D00E412093C90000175F00A120A5C900021EF
:10109D00E475F002120A5C900023E475F00F120A59
:1010AD005C900003740212094E900004740612093C
:1010BD004E900005740112094E9000067406120937
:1010CD004E900007E412094E900008740602094E76
:100A9F00900039ECF0A3EDF0900036EBF0A3EAF004
:030AAF00A3E9F0C8
:100AB2009000211209D724FFFEE5F034FF90003D9B
:100AC200F0A3CEF090003DE0FEA3E0FFD39400EE51
:100AD2009400403EEF25E0FFEE33FE900036E0FB4F
:100AE200A3E0FAA3E02FF9EA3EFA90000112090FFF
:100AF20090000312094E90000212090F9000041296
:100B0200094E90003EE024FFF090003DE034FFF0FB
:100B120080B2900039E0FEA3E0FFC3EE94005021C2
:100B2200900036E0FBA3E0FAA3E0F990000312097B
:100B32000FFD70047D078003ED14FD900003ED802E
:100B42001B900036E0FBA3E0FAA3E0F99000031249
:100B5200090FFDEF2DFFEF540790000312094E908D
:100B6200003BE0FEA3E0FFC3EE940050219000366C
:100B7200E0FBA3E0FAA3E0F990000412090FFD7074
:100B8200047D078003ED14FD900004ED801B9000AE
:100B920036E0FBA3E0FAA3E0F990000412090FFD8E
:0C0BA200EF2DFFEF540790000412094EE5
:010BAE002224
:100BAF00900030EBF0A3EAF0A3E9F0900030E0FB07
:100BBF00A3E0FAA3E0F91208F614601514602914E3
:100BCF00603D24037052E490003BF0A3F07D018060
:100BDF0043900030E0FBA3E0FAA3E0F9E490003B80
:100BEF00F0A3F074FFFD802C900030E0FBA3E0FA3F
:100BFF00A3E0F990003BE4F0A304F0E4FD8015902E
:100C0F000030E0FBA3E0FAA3E0F974FF90003BF0A3
:100C1F00A3F0E4FDFC120A9F900030E0FBA3E0FA82
:100C2F00A3E0F990000312090FFF900033E0FBA33C
:100C3F00E0FAA3E0F91208F6B5073C900030E0FBAC
:100C4F00A3E0FAA3E0F990000412090FFF9000331C
:100C5F00E0FBA3E0FAA3E0F990000112090FB5073A
:100C6F0016900002740112094E900030E0FBA3E0D1
:080C7F00FAA3E0F91210DD22D6
:100F2900E4900091F078927C007D017BFF7A127940
:100F390050FE7F021208D0E4900091F0900091E0F9
:100F4900FFD390008EE09F90008DE094004054758F
:100F590080FF900091E0FF25E0246FF582E43400E2
:100F6900F583E0FE7401A806088002C333D8FC901B
:100F79000092F0EF25E02470F582E43400F583E077
:100F8900FF7401A807088002C333D8FC900093F0CE
:100F9900F4F07B017A007992121193900091E004A8
:030FA900F080993C
:010FAC002222
:1011C400900096ECF0A3EDF07580FF7401A8070879
:1011D4008002C333D8FCFF121159900096A3E0FF9C
:0F11E4007401A807088002C333D8FCF4F58022F9
:10111D00ED24FB601F24FE602624FD600E24087064
:10112D002A1208F664016023E4801D1208F6601B84
:10113D00740180141208F6640360107402800912A1
:0C114D0008F664026005740312093C22DD
:1010DD009000211209D72401FFE435F0FE90002382
:1010ED001209D7FDD3EF9DEE95F0500A900021E443
:1010FD0075F001120A0F9000011209D7D39490E5F3
:10110D00F09401500A900001E475F032120A0F229A
:10102C00900000EBF0A3EAF0A3E9F0A3ECF0FEA330
:10103C00EDF0FF1211F3900000E0FBA3E0FAA3E047
:10104C00F9900001EF12094E900003E0FEA3E0FFBF
:10105C007C007D091209707E00EF5407FF1211F31A
:10106C00900000E0FBA3E0FAA3E0F9EF12093C903A
:10107C000000E0FBA3E0FAA3E0F9900002E402090F
:01108C004E15
:100D5000E4900028F0F0900028E0FFC394084003DE
:100D6000020E027401A807088002C333D8FC900069
:100D700029F0E4A3F0FBEBFDD3900022E09D90006E
:100D800021E09400403BEB25E02403F582E43400AD
:100D9000F583E0FE900028E0B5062390002AE0FEEF
:100DA000EB25E02404F582E43400F583E0FD7401D2
:100DB000A805088002C333D8FC4E90002AF00B80AF
:100DC000B5900028E0FF900025E0B5071A90002AB2
:100DD000E0FF900026E0FE7401A806088002C333FD
:100DE000D8FC4F90002AF07580FF90002AE0F4F0C4
:100DF0007B017A007929121193900028E004F00217
:020E00000D568D
:010E020022CD
:100EA900020FADE493A3F8E493A34003F68001F2A3
:100EB90008DFF48029E493A3F85407240CC8C3334A
:100EC900C4540F4420C8834004F456800146F6DF19
:100ED900E4800B010204081020408090121BE47E7C
:100EE900019360BCA3FF543F30E509541FFEE4930E
:100EF900A360010ECF54C025E060A840B8E493A3D5
:100F0900FAE493A3F8E493A3C8C582C8CAC583CAFF
:100F1900F0A3C8C582C8CAC583CADFE9DEE780BEB7
:0112310000BC
:10080000E709F608DFFA8046E709F208DFFA803EDA
:1008100088828C83E709F0A3DFFA8032E309F608C7
:10082000DFFA8078E309F208DFFA807088828C832F
:10083000E309F0A3DFFA806489828A83E0A3F608E3
:10084000DFFA805889828A83E0A3F208DFFA804CBD
:1008500080D280FA80C680D4806980F28033801094
:1008600080A680EA809A80A880DA80E280CA8033FD
:1008700089828A83ECFAE493A3C8C582C8CCC58375
:10088000CCF0A3C8C582C8CCC583CCDFE9DEE78045
:100890000D89828A83E493A3F608DFF9ECFAA9F0C4
:1008A000EDFB2289828A83ECFAE0A3C8C582C8CC1A
:1008B000C583CCF0A3C8C582C8CCC583CCDFEADE33
:1008C000E880DB89828A83E493A3F208DFF980CC95
:1008D00088F0EF60010E4E60C388F0ED2402B4048E
:1008E0000050B9F582EB2402B4040050AF23234535
:0608F00082239008507302
:1008F600BB010689828A83E0225002E722BBFE0200
:09090600E32289828A83E4932232
:10090F00BB010CE58229F582E5833AF583E022509D
:10091F0006E92582F8E622BBFE06E92582F8E222E7
:0D092F00E58229F582E5833AF583E4932201
:10093C00BB010689828A83F0225002F722BBFE019A
:02094C00F32294
:10094E00F8BB010DE58229F582E5833AF583E8F0DF
:10095E00225006E92582C8F622BBFE05E92582C88B
:02096E00F22273
:10097000EF8DF0A4A8F0CF8CF0A428CE8DF0A42E9B
:02098000FE2255
:10098200BC000BBE0029EF8DF084FFADF022E4CC59
:10099200F875F008EF2FFFEE33FEEC33FCEE9DEC22
:1009A200984005FCEE9DFE0FD5F0E9E4CEFD22ED68
:1009B200F8F5F0EE8420D21CFEADF075F008EF2FB2
:1009C200FFED33FD4007985006D5F0F222C398FDA3
:0509D2000FD5F0EA2240
:1009D700BB0110E58229F582E5833AF583E0F5F05E
:1009E700A3E0225009E92582F886F008E622BBFE3B
:1009F7000AE92582F8E2F5F008E222E5832AF58381
:080A0700E993F5F0A3E9932245
:100A0F00BB010DC58229C582C5833AC583020A89F8
:100A1F005011C58229F808E5F026F618F5F0E582A1
:100A2F0036F622BBFE11C58229F808E225F0F5F053
:100A3F00F218E23582F222F8E58229F582E5832A5F
:0D0A4F00F58374019325F0F5F0E49338224F
:100A5C00F8BB0111E58229F582E5833AF583E8F0CC
:100A6C00E5F0A3F0225009E92582C8F608A6F02289
:0D0A7C00BBFE09E92582C8F2E5F008F22270
:100A8900C5F0F8A3E028F0C5F0F8E58215827002F8
:060A99001583E038F02295
:00000001FF
