:03000000020CAD42
:0C0CAD00787FE4F6D8FD758172020CF42B
:0B101900026B000101700002440000A7
:100DB100E4F56FAE6BAF6CFC7D07120970120FADDD
:100DC100EF5407F56DAF6CAE6B120FADEF5407F535
:100DD1006E7B007A007946120E7412102B78087C13
:100DE100007D007B007A0079467E007F251208D0C5
:100DF100120E13AF6D7E00AD6E7C00120FD6E56F43
:100E0100B401DA7B007A00796DAD6CAC6B120EC463
:020E110080CB94
:03001B00020B7560
:100B7500C0E0C0F0C083C082C0D075D000C000C046
:0D0B850001C002C003C004C005C006C007C7
:100B9200758DD5758B240545E54570020544AE6B10
:100BA200AF6C7C007D1D120970EF241DFF756B0078
:100BB200EF5407F56CAE44AF457D05120982ED4C4A
:100BC2007013120D398F70E570600A7B007A00791C
:100BD20046FD120F0DC3E54594F4E5449401401817
:100BE200754400754500753800753900753A6D7B9E
:080BF200007A007946120C158F
:100BFA00D007D006D005D004D003D002D001D0004F
:0B0C0A00D0D0D082D083D0F0D0E032F8
:06102400017100017201E0
:10102B00438901758DD5758B24D2ABD2AFD28E226D
:020F49008F33E4
:100F4B00E4F534F534E533C4131313540124FF9241
:100F5B00B4E53325E0F533C2B612103BD2B612100E
:100F6B003B0534E534C3940840DBD2B512103BC2C9
:010F7B00B5C0
:010F7C002252
:100FFD008B308A3189321208F6FF120F49AB30AAB5
:0C100D0031A93290000112090FF5802279
:04103B007F017E00B3
:0A103F00EF1F70011E144E70F7221F
:100D390075900FE57264017061E590640F605BE482
:100D4900F572E590640F602775900FAF90EF24F569
:100D5900601024FE6011146013240770127571016C
:100D6900800D7571028008757103800375710475B2
:100D790090F0AF90EF2450601124E0601124F060EE
:100D89001124707020857171801B740480067408A9
:100D99008002740C2571F571800BE590B40F037511
:070DA9007201E4F571AF7166
:010DB0002220
:100FAD00750D00750E117A00900008AC06AD07AEF8
:100FBD000DAF0E120970EF241DFFEA3EFEAC83AD9E
:080FCD0082120982AE04AF0597
:010FD50022F9
:021049000000A5
:100E7400E412093C90000175F001120A5C90002113
:100E8400E475F002120A5C900023E475F00F120A74
:100E94005C900003740212094E9000047406120957
:100EA4004E900005740112094E9000067406120952
:100EB4004E900007E412094E900008740602094E91
:0A0A9F008C3E8D3F8B3B8A3C893D65
:100AA9009000211209D7AEF024FFF543EE34FFF58B
:100AB90042D3E5439400E54294004035E54325E0FF
:100AC900FFE54233FEAB3BE53D2FF9E53C3EFA90AD
:100AD900000112090F90000312094E900002120939
:100AE9000F90000412094EE543154370C415428066
:100AF900C0C3E53E9400501CAB3BAA3CA93D900005
:100B09000312090FFF70047F078003EF14FF9000A1
:100B190003EF8017AB3BAA3CA93D90000312090FD4
:100B2900FFE53F2FFFEF540790000312094EC3E57D
:100B3900409400501CAB3BAA3CA93D90000412090B
:100B49000FFF70047F078003EF14FF900004EF800C
:100B590017AB3BAA3CA93D90000412090FFFE541E0
:0B0B69002FFFEF540790000412094E0C
:010B7400225E
:100C15008B358A3689371208F61460131460201450
:100C2500602D2403703BE4F540F5417D01802EAB3A
:100C350035AA36A937E4F540F54174FFFD801EABB2
:100C450035AA36A937754000754101E4FD800EAB24
:100C550035AA36A93774FFF540F541E4FDFC120AC3
:100C65009FAB35AA36A93790000312090FFFAB38A1
:100C7500AA39A93A1208F6B5072DAB35AA36A93710
:100C850090000412090FFFAB38AA39A93A90000168
:100C950012090FB50711900002740112094EAB3508
:080CA500AA36A937120F7D22C7
:100E1300E4F52D782E7C00FD7BFF7A107949FE7F67
:100E2300021208D0E4F52DC3E52D952AE495295047
:100E33003F7580FFE52D25E0240BF8E6FF7401A83C
:100E430007088002C333D8FCF52EE52D25E0240CDA
:100E5300F8E6FF7401A807088002C333D8FCF52F16
:100E6300632FFF7B007A00792E120FFD052D80B7CB
:010E7300225C
:100FD6008C088D097580FF7401A807088002C33349
:100FE600D8FCFF120F49AF097401A807088002C395
:070FF60033D8FCF4F5802262
:100F0D00ED24FB601F24FE602624FD600E24087076
:100F1D002A1208F664016023E4801D1208F6601B96
:100F2D00740180141208F6640360107402800912B3
:0C0F3D0008F664026005740312093C22EF
:100F7D009000211209D72401FFE435F0FE900023E3
:100F8D001209D7FDD3EF9DEE95F0500A900021E4A4
:100F9D0075F001120A0F900001E475F001020A0FBD
:100EC4008B088A09890A8C0B8D0CAF0CAE0B120FA0
:100ED400ADAB08AA09A90A900001EF12094EAE0BA6
:100EE400AF0C7C007D091209707E00EF5407FF12DD
:100EF4000FADAB08AA09A90AEF12093CAB08AA096D
:090F0400A90A900002E402094E62
:100CB900020DB1E493A3F8E493A34003F68001F293
:100CC90008DFF48029E493A3F85407240CC8C3333C
:100CD900C4540F4420C8834004F456800146F6DF0B
:100CE900E4800B0102040810204080901019E47E72
:100CF900019360BCA3FF543F30E509541FFEE49300
:100D0900A360010ECF54C025E060A840B8E493A3C6
:100D1900FAE493A3F8E493A3C8C582C8CAC583CAF1
:100D2900F0A3C8C582C8CAC583CADFE9DEE780BEA9
:01102A0000C5
:10080000E709F608DFFA8046E709F208DFFA803EDA
:1008100088828C83E709F0A3DFFA8032E309F608C7
:10082000DFFA8078E309F208DFFA807088828C832F
:10083000E309F0A3DFFA806489828A83E0A3F608E3
:10084000DFFA805889828A83E0A3F208DFFA804CBD
:1008500080D280FA80C680D4806980F28033801094
:1008600080A680EA809A80A880DA80E280CA8033FD
:1008700089828A83ECFAE493A3C8C582C8CCC58375
:10088000CCF0A3C8C582C8CCC583CCDFE9DEE78045
:100890000D89828A83E493A3F608DFF9ECFAA9F0C4
:1008A000EDFB2289828A83ECFAE0A3C8C582C8CC1A
:1008B000C583CCF0A3C8C582C8CCC583CCDFEADE33
:1008C000E880DB89828A83E493A3F208DFF980CC95
:1008D00088F0EF60010E4E60C388F0ED2402B4048E
:1008E0000050B9F582EB2402B4040050AF23234535
:0608F00082239008507302
:1008F600BB010689828A83E0225002E722BBFE0200
:09090600E32289828A83E4932232
:10090F00BB010CE58229F582E5833AF583E022509D
:10091F0006E92582F8E622BBFE06E92582F8E222E7
:0D092F00E58229F582E5833AF583E4932201
:10093C00BB010689828A83F0225002F722BBFE019A
:02094C00F32294
:10094E00F8BB010DE58229F582E5833AF583E8F0DF
:10095E00225006E92582C8F622BBFE05E92582C88B
:02096E00F22273
:10097000EF8DF0A4A8F0CF8CF0A428CE8DF0A42E9B
:02098000FE2255
:10098200BC000BBE0029EF8DF084FFADF022E4CC59
:10099200F875F008EF2FFFEE33FEEC33FCEE9DEC22
:1009A200984005FCEE9DFE0FD5F0E9E4CEFD22ED68
:1009B200F8F5F0EE8420D21CFEADF075F008EF2FB2
:1009C200FFED33FD4007985006D5F0F222C398FDA3
:0509D2000FD5F0EA2240
:1009D700BB0110E58229F582E5833AF583E0F5F05E
:1009E700A3E0225009E92582F886F008E622BBFE3B
:1009F7000AE92582F8E2F5F008E222E5832AF58381
:080A0700E993F5F0A3E9932245
:100A0F00BB010DC58229C582C5833AC583020A89F8
:100A1F005011C58229F808E5F026F618F5F0E582A1
:100A2F0036F622BBFE11C58229F808E225F0F5F053
:100A3F00F218E23582F222F8E58229F582E5832A5F
:0D0A4F00F58374019325F0F5F0E49338224F
:100A5C00F8BB0111E58229F582E5833AF583E8F0CC
:100A6C00E5F0A3F0225009E92582C8F608A6F02289
:0D0A7C00BBFE09E92582C8F2E5F008F22270
:100A8900C5F0F8A3E028F0C5F0F8E58215827002F8
:060A99001583E038F02295
:00000001FF
