:03000000020AB43D
:0C0AB400787FE4F6D8FD75816F020AFB24
:100D5000112D3F065B4F666D7D077F6F777C395E97
:070D60007971000208000098
:0E0D90007B007A00790A120CCB120D8080FED7
:03000B00020BB431
:100BB400C0E0C0F0C083C082C0D075D000C000C007
:0D0BC40001C002C003C004C005C006C00788
:100BD100758CFC758A180509E50970020508C3942E
:100BE100F4E50894014021750800750900B2A77861
:100BF1003E7C007D007B007A00790A7E007F231213
:080C010008D0120C24120D347E
:100C0900D007D006D005D004D003D002D001D0003F
:0B0C1900D0D0D082D083D0F0D0E032E9
:030D6700016F0019
:020D00008F4121
:100D0200E4F542F542E541C4131313540124FF9262
:100D1200B4E54125E0F541C2B6120D6BD2B6120D13
:100D22006B0542E542C3940840DBD2B5120D6BC29B
:010D3200B50B
:010D3300229D
:100D34008B3E8A3F89401208F6FF120D00AB3EAA93
:0C0D44003FA94090000112090FF5802229
:040D6B007F017E0086
:100D6F00EF25E0FFEE33FEEF1F70011E144E70F7FC
:010D7F002251
:100B400075900FE590640F60657FE87E03120D6F6E
:100B5000E590640F602775900FAF90EF24F560105B
:100B600024FE601114601324077012756F01800D4C
:100B7000756F028008756F038003756F047590F0C0
:100B8000AF90EF2450601124E0601124F060112434
:100B9000707013856F6F800E740480067408800275
:100BA000740C256FF56FE59064F0600580F8E4F54E
:030BB0006FAF6FB5
:010BB300221F
:100D8000438901758CFC758A18D2A9D2AFD28C2206
:100CCB00E412093C90000175F0011209A890002173
:100CDB00E475F0021209A8900003740712094E90F4
:100CEB000004740712094E900005E412094E90009F
:050CFB0006E402094EB1
:100C2400E4F56DF56EFFEFFD3395E0FCC3ED9560E3
:100C3400EC955F502DEF25E02441F8E6FE7401A801
:100C440006088002C333D8FC426DEF25E02442F845
:100C5400E6FE7401A806088002C333D8FC526E0F66
:100C640080C4E56E70047F0180027F008F6E7B007C
:040C74007A00796D1C
:010C78002259
:0A09D5008B618A6289638C648D6572
:1009DF00E4F568F569AB61AA62A963900021120979
:1009EF0070FFC3E5699FE56895F04003020AB3C342
:1009FF00E56494005025E56925E0FFE56833FEE9DD
:100A0F002FF9EA3EFA90000312090FFF70047F07D7
:100A1F008003EF14FF900003EF8024E56925E0FFCA
:100A2F00E56833FEAB61E5632FF9E5623EFA9000AE
:100A3F000312090FFFE5652FFFEF54079000031214
:100A4F00094EC3E56694005029E56925E0FFE56886
:100A5F0033FEAB61E5632FF9E5623EFA90000412B5
:100A6F00090FFF70047F078003EF14FF900004EF5E
:100A7F008024E56925E0FFE56833FEAB61E5632F70
:100A8F00F9E5623EFA90000412090FFFE5672FFFA8
:100A9F00EF540790000412094E0569E569700205CD
:040AAF00680209E4EC
:010AB3002220
:100C79008B6A8A6B896C1208F6146013146020144D
:100C8900602D2403703BE4F566F5677D01802EAB8A
:100C99006AAA6BA96CE4F566F56774FFFD801EAB63
:100CA9006AAA6BA96C756600756701E4FD800EABD5
:100CB9006AAA6BA96C74FFF566F567E4FDFC120975
:020CC900D52232
:100AC000020D90E493A3F8E493A34003F68001F2AF
:100AD00008DFF48029E493A3F85407240CC8C33337
:100AE000C4540F4420C8834004F456800146F6DF06
:100AF000E4800B0102040810204080900D50E47E39
:100B0000019360BCA3FF543F30E509541FFEE493FA
:100B1000A360010ECF54C025E060A840B8E493A3C1
:100B2000FAE493A3F8E493A3C8C582C8CAC583CAEC
:100B3000F0A3C8C582C8CAC583CADFE9DEE780BEA4
:010D6A000088
:10080000E709F608DFFA8046E709F208DFFA803EDA
:1008100088828C83E709F0A3DFFA8032E309F608C7
:10082000DFFA8078E309F208DFFA807088828C832F
:10083000E309F0A3DFFA806489828A83E0A3F608E3
:10084000DFFA805889828A83E0A3F208DFFA804CBD
:1008500080D280FA80C680D4806980F28033801094
:1008600080A680EA809A80A880DA80E280CA8033FD
:1008700089828A83ECFAE493A3C8C582C8CCC58375
:10088000CCF0A3C8C582C8CCC583CCDFE9DEE78045
:100890000D89828A83E493A3F608DFF9ECFAA9F0C4
:1008A000EDFB2289828A83ECFAE0A3C8C582C8CC1A
:1008B000C583CCF0A3C8C582C8CCC583CCDFEADE33
:1008C000E880DB89828A83E493A3F208DFF980CC95
:1008D00088F0EF60010E4E60C388F0ED2402B4048E
:1008E0000050B9F582EB2402B4040050AF23234535
:0608F00082239008507302
:1008F600BB010689828A83E0225002E722BBFE0200
:09090600E32289828A83E4932232
:10090F00BB010CE58229F582E5833AF583E022509D
:10091F0006E92582F8E622BBFE06E92582F8E222E7
:0D092F00E58229F582E5833AF583E4932201
:10093C00BB010689828A83F0225002F722BBFE019A
:02094C00F32294
:10094E00F8BB010DE58229F582E5833AF583E8F0DF
:10095E00225006E92582C8F622BBFE05E92582C88B
:02096E00F22273
:10097000BB0110E58229F582E5833AF583E0F5F0C5
:10098000A3E0225009E92582F886F008E622BBFEA2
:100990000AE92582F8E2F5F008E222E5832AF583E8
:0809A000E993F5F0A3E99322AD
:1009A800F8BB0111E58229F582E5833AF583E8F081
:1009B800E5F0A3F0225009E92582C8F608A6F0223E
:0D09C800BBFE09E92582C8F2E5F008F22225
:00000001FF
