:03000000020AAD44
:0C0AAD00787FE4F6D8FD758178020AF429
:100DDA00112F3F065B4F666D7D077F6F777C395E0B
:0E0DEA0079710001400002080000020A0000BA
:100DFF007B007A00790C120D6F120E51120E617B6F
:100E0F00007A00790C120CE17F407E4B120E40806D
:010E1F00EEE4
:03000B00020C23C1
:100C2300C0E0C0F0C083C082C0D075D000C000C097
:0D0C330001C002C003C004C005C006C00718
:100C4000758CFC758A180509E50970020508C394BE
:100C500003E50894004019750800750900120B3966
:100C60008F40E540600A7B007A00790CFD120D335D
:100C7000D007D006D005D004D003D002D001D000D8
:0B0C8000D0D0D082D083D0F0D0E03282
:03001B00020BB81D
:100BB800C0E0C0F0C083C082C0D075D000C000C003
:0D0BC80001C002C003C004C005C006C00784
:100BD500758CFC758A18050BE50B7002050AC39424
:100BE50014E50A9400401C750A00750B00784D7CCD
:100BF500007D007B007A00790C7E007F231208D0EF
:030C0500120C8B43
:100C0800D007D006D005D004D003D002D001D00040
:0B0C1800D0D0D082D083D0F0D0E032EA
:060DF80001770001780103
:100E5100438901758CFC758A18D2A9D2AFD28C2234
:100E6100438901758DFC758B18D2ABD2AFD28E221E
:020DA6008F7547
:100DA800E4F576F576E575C4131313540124FF9220
:100DB800B4E57525E0F575C2B6120E3CD2B6120E32
:100DC8003C0576E576C3940840DBD2B5120E3CC2EA
:010DD800B565
:010DD90022F7
:100E20008B728A7389741208F6FF120DA6AB72AA30
:0C0E300073A97490000112090FF58022D4
:040E3C007F017E00B4
:100E4000EF25E0FFEE33FEEF1F70011E144E70F72A
:010E5000227F
:100B390075900FE57864017068E590640F6062E470
:100B4900F5787FE87E03120E40E590640F60277503
:100B5900900FAF90EF24F5601024FE60111460131C
:100B690024077012757701800D75770280087577F3
:100B79000380037577047590F0AF90EF24506011EE
:100B890024E0601124F0601124707020857777804B
:100B99001B7404800674088002740C2577F577802D
:0E0BA9000BE590B40F03757801E4F577AF7794
:010BB700221B
:020E710000007F
:100D6F00E412093C90000175F0011209A8900021CE
:100D7F00E475F0021209A8900003740212094E9054
:100D8F000004740612094E900005740112094E906A
:070D9F000006740602094E74
:0A09D5008B448A4589468C478D4803
:1009DF00E4F54BF54CAB44AA45A94690002112090A
:1009EF007024FFFFE5F034FFFEC3E54C9FE54B9EFF
:1009FF005031E54C25E0FFE54B33FEE92FF9EA3E98
:100A0F00FA90000312090F90000512094E9000048E
:100A1F0012090F90000612094E054CE54C70B605F1
:100A2F004B80B2C3E5479400501CAB44AA45A9467E
:100A3F0090000312090FFF70047F078003EF14FF6C
:100A4F00900003EF8017AB44AA45A946900003120C
:100A5F00090FFFE5482FFFEF540790000312094ECF
:100A6F00C3E5499400501CAB44AA45A94690000425
:100A7F0012090FFF70047F078003EF14FF9000042B
:100A8F00EF8017AB44AA45A94690000412090FFF47
:0D0A9F00E54A2FFFEF540790000412094EA6
:010AAC002227
:100CE1008B418A4289431208F61460131460201460
:100CF100602D2403703BE4F549F54A7D01802EAB5C
:100D010041AA42A943E4F549F54A74FFFD801EABAF
:100D110041AA42A943754900754A01E4FD800EAB21
:100D210041AA42A94374FFF549F54AE4FDFC1209C1
:020D3100D522C9
:100C8B00E478707C00FD7BFF7A0E7971FE7F021297
:100C9B0008D0E4FFEFC3956FE4956E502DEF25E080
:100CAB002450F8E6FE7401A806088002C333D8FC72
:100CBB004270EF25E02451F8E6FE7401A806088087
:100CCB0002C333D8FC42710F80CA6371FF7B007A79
:060CDB00007970020E20FA
:100D3300ED24FB601F24FE602624FD600E24087052
:100D43002A1208F664016023E4801D1208F6601B72
:100D5300740180141208F66403601074028009128F
:0C0D630008F664026005740312093C22CB
:100AB900020DFFE493A3F8E493A34003F68001F247
:100AC90008DFF48029E493A3F85407240CC8C3333E
:100AD900C4540F4420C8834004F456800146F6DF0D
:100AE900E4800B0102040810204080900DDAE47EB6
:100AF900019360BCA3FF543F30E509541FFEE49302
:100B0900A360010ECF54C025E060A840B8E493A3C8
:100B1900FAE493A3F8E493A3C8C582C8CAC583CAF3
:100B2900F0A3C8C582C8CAC583CADFE9DEE780BEAB
:010DFE0000F4
:10080000E709F608DFFA8046E709F208DFFA803EDA
:1008100088828C83E709F0A3DFFA8032E309F608C7
:10082000DFFA8078E309F208DFFA807088828C832F
:10083000E309F0A3DFFA806489828A83E0A3F608E3
:10084000DFFA805889828A83E0A3F208DFFA804CBD
:1008500080D280FA80C680D4806980F28033801094
:1008600080A680EA809A80A880DA80E280CA8033FD
:1008700089828A83ECFAE493A3C8C582C8CCC58375
:10088000CCF0A3C8C582C8CCC583CCDFE9DEE78045
:100890000D89828A83E493A3F608DFF9ECFAA9F0C4
:1008A000EDFB2289828A83ECFAE0A3C8C582C8CC1A
:1008B000C583CCF0A3C8C582C8CCC583CCDFEADE33
:1008C000E880DB89828A83E493A3F208DFF980CC95
:1008D00088F0EF60010E4E60C388F0ED2402B4048E
:1008E0000050B9F582EB2402B4040050AF23234535
:0608F00082239008507302
:1008F600BB010689828A83E0225002E722BBFE0200
:09090600E32289828A83E4932232
:10090F00BB010CE58229F582E5833AF583E022509D
:10091F0006E92582F8E622BBFE06E92582F8E222E7
:0D092F00E58229F582E5833AF583E4932201
:10093C00BB010689828A83F0225002F722BBFE019A
:02094C00F32294
:10094E00F8BB010DE58229F582E5833AF583E8F0DF
:10095E00225006E92582C8F622BBFE05E92582C88B
:02096E00F22273
:10097000BB0110E58229F582E5833AF583E0F5F0C5
:10098000A3E0225009E92582F886F008E622BBFEA2
:100990000AE92582F8E2F5F008E222E5832AF583E8
:0809A000E993F5F0A3E99322AD
:1009A800F8BB0111E58229F582E5833AF583E8F081
:1009B800E5F0A3F0225009E92582C8F608A6F0223E
:0D09C800BBFE09E92582C8F2E5F008F22225
:00000001FF
