:030000000209B53D
:0C09B500787FE4F6D8FD75812C0209FC67
:100BF800020F0017020D0014020B0000022500006E
:100C08001411003F0006005B004F0066006D007D78
:0D0C18000007007F006F02080000010A00C5
:0B0C6400120C6F120A41120B3080F8D6
:060C6F00120C57020C47B5
:0D0C5700850F0B85100C850D25850E2622BE
:100C4700438901758CFC758A18D2A9D2AFC28C2250
:100A4100120B89EF24FE600D14600D14603724032E
:100A51007065D28C22C28C2274052510F510E43504
:100A61000FF50F7405250EF50EE4350DF50D740522
:100A7100250CF50CE4350BF50B74052526F526E45C
:100A81003525F52522D3E510940FE50F6480948078
:100A91004025D3E50E940FE50D64809480401874D1
:100AA100FB2510F51074FF350FF50F74FB250EF5BE
:080AB1000E74FF350DF50D2256
:100AB900D3E510950EE50D6480F8E50F6480984044
:100AC90006AE0BAF0C8004AE25AF26D3EF9403EE30
:100AD900648094804026D3E510950EE50D6480F876
:100AE900E50F648098400DD296C294C295C2A4D2F3
:100AF900A6C2A522C296D294C2958024D3E51095A8
:100B09000EE50D6480F8E50F648098400DD296C219
:100B190094C295C2A4C2A6D2A522C296C294D29565
:070B2900D2A4C2A6C2A5225E
:03000B00020800E8
:10080000C0E0C0F0C083C082C0D075D000C000C0BE
:0D08100001C002C003C004C005C006C0073F
:10081D00758CFC758A180509E5097002050864E8F0
:10082D007004E508640360030208C5F508F509E5E1
:10083D0026152670021525E50C150C7002150BD327
:10084D00E510950EE50D6480F8E50F64809840067F
:10085D00AE25AF268004AE0BAF0CEF4E7057D3E52F
:10086D0010950EE50D6480F8E50F6480984006AE96
:10087D000BAF0C8004AE25AF26EF64034E7021D371
:10088D00E510950EE50D6480F8E50F64809840083D
:10089D00752500752603801D750B00750C038015DD
:1008AD00752A00752B00752C0D7B007A00790F12BF
:0808BD000BC9120C57120AB915
:1008C500D007D006D005D004D003D002D001D00087
:0B08D500D0D0D082D083D0F0D0E03231
:100B3000D2A0C2A1C2A2C2A3AE25AF26120C2675B6
:100B400080FFC2A0D2A1C2A2C2A3AE25AF267C0064
:100B50007D0A1208E0ED120C2E7580FFC2A0C2A122
:100B6000D2A2C2A3AE0BAF0C120C267580FFC2A09E
:100B7000C2A1C2A2D2A3AE0BAF0C7C007D0A1208A8
:090B8000E0ED120C2E7580FF223D
:100B8900E50A702A30900930910630920320931EAD
:100B9900750A01120B302090037F01222091037FF7
:100BA90002222092037F03222093127F0422309095
:0F0BB9000C309109309206309303E4F50A7F0067
:010BC800220A
:100C26007C007D0A1208E0EF25E02411F808E6F4BE
:060C3600F5807F327E0014
:0B0C3C00EF1FAC0670011E4C70F6228A
:060BC9008B278A28892910
:100BCF00120916FFAEF0AB2AAA2BA92C120916FD9B
:100BDF00AB27AA28A929E5F08DF0120941AB2AAA63
:090BEF002BA92CEE8FF002094144
:1009C100020C64E493A3F8E493A34003F68001F2DC
:1009D10008DFF48029E493A3F85407240CC8C33337
:1009E100C4540F4420C8834004F456800146F6DF06
:1009F100E4800B0102040810204080900BF8E47E93
:100A0100019360BCA3FF543F30E509541FFEE493FA
:100A1100A360010ECF54C025E060A840B8E493A3C1
:100A2100FAE493A3F8E493A3C8C582C8CAC583CAEC
:100A3100F0A3C8C582C8CAC583CADFE9DEE780BEA4
:010C250000CE
:1008E000C2D5EC30E709B2D5E4C39DFDE49CFCEE33
:1008F00030E715B2D5E4C39FFFE49EFE120960C342
:10090000E49DFDE49CFC800312096030D507C3E43C
:060910009FFFE49EFE22A1
:10091600BB010A89828A83E0F5F0A3E022500687AC
:10092600F009E71922BBFE07E3F5F009E31922896E
:0B093600828A83E493F5F074019322A1
:10094100BB010A89828A83F0E5F0A3F0225006F701
:0F09510009A7F01922BBFE06F3E5F009F31922FE
:10096000BC000BBE0029EF8DF084FFADF022E4CC7B
:10097000F875F008EF2FFFEE33FEEC33FCEE9DEC44
:10098000984005FCEE9DFE0FD5F0E9E4CEFD22ED8A
:10099000F8F5F0EE8420D21CFEADF075F008EF2FD4
:1009A000FFED33FD4007985006D5F0F222C398FDC5
:0509B0000FD5F0EA2262
:00000001FF
