:03000000020800F3
:0C080000787FE4F6D8FD758121020847DE
:10096F00140C003F0006005B004F0066006D007D19
:10097F000007007F006F020A00190220001402080E
:02098F00000066
:0809C3001209B312088C80FB3D
:100992007C007D0A1208E5EF25E0240CF808E6F455
:0609A200F5807F327E00AB
:0B09A800EF1FAC0670011E4C70F62221
:1009B300438901758CFC758A18D2A9D2AFD28C22D7
:03000B0002093AAD
:04093A00C0E0C0D089
:10093E00758CFC758A180509E50970020508B4E87E
:10094E001BE508B40316750800750900E52115218D
:0C095E0070021520E50B150B7002150A45
:05096A00D0D0D0E03206
:10088C00D2A0C2A1C2A2C2A3AE20AF2112099275FE
:10089C0080FFC2A0D2A1C2A2C2A3AE20AF217C0015
:1008AC007D0A1208E5ED12099A7580FFC2A0C2A15B
:1008BC00D2A2C2A3AE0AAF0B1209927580FFC2A0DE
:1008CC00C2A1C2A2D2A3AE0AAF0B7C007D0A120851
:0908DC00E5ED12099A7580FF2276
:10080C000209C3E493A3F8E493A34003F68001F236
:10081C0008DFF48029E493A3F85407240CC8C333ED
:10082C00C4540F4420C8834004F456800146F6DFBC
:10083C00E4800B010204081020408090096FE47ED4
:10084C00019360BCA3FF543F30E509541FFEE493B1
:10085C00A360010ECF54C025E060A840B8E493A378
:10086C00FAE493A3F8E493A3C8C582C8CAC583CAA3
:10087C00F0A3C8C582C8CAC583CADFE9DEE780BE5B
:010991000065
:1008E500BC000BBE0029EF8DF084FFADF022E4CCF7
:1008F500F875F008EF2FFFEE33FEEC33FCEE9DECC0
:10090500984005FCEE9DFE0FD5F0E9E4CEFD22ED05
:10091500F8F5F0EE8420D21CFEADF075F008EF2F4F
:10092500FFED33FD4007985006D5F0F222C398FD40
:050935000FD5F0EA22DD
:00000001FF
