:0300000002096A88
:0C096A00787FE4F6D8FD75812C0209B1FD
:100B9500020F0019020D00161411003F0006005B3C
:100BA500004F0066006D007D0007007F006F0208A2
:050BB5000000010A0030
:0B0BF900120C041209F6120ACD80F85D
:060C0400120BEC020BDCF8
:0D0BEC00850F0B85100C850D25850E26222A
:100BDC00438901758CFC758A18D2A9D2AFC28C22BC
:03000B00020800E8
:10080000C0E0C0F0C083C082C0D075D000C000C0BE
:0D08100001C002C003C004C005C006C0073F
:10081D00758CFC758A180509E5097002050864E8F0
:10082D007004E5086403707BF508F509E5261526C7
:10083D0070021525E50C150C7002150BD3E51095FE
:10084D000EE50F950D4006AE25AF268004AE0BAF1D
:10085D000CEF4E704BD3E510950EE50F950D400640
:10086D00AE0BAF0C8004AE25AF26EF64034E701BAC
:10087D00D3E510950EE50F950D40087525007526ED
:10088D0003801D750B00750C038015752A00752BE3
:10089D0000752C0D7B007A00790F120B66120BEC94
:0308AD00120A6AC2
:1008B000D007D006D005D004D003D002D001D0009C
:0B08C000D0D0D082D083D0F0D0E03246
:1009F600120B26EF24FE600D14600D1460372403DD
:100A06007061D28C22C28C2274052510F510E43553
:100A16000FF50F7405250EF50EE4350DF50D74056D
:100A2600250CF50CE4350BF50B74052526F526E4A7
:100A36003525F52522D3E510940FE50F94004023C4
:100A4600D3E50E940FE50D9400401874FB2510F5C0
:100A56001074FF350FF50F74FB250EF50E74FF3578
:040A66000DF50D225B
:100A6A00D3E510950EE50F950D4006AE0BAF0C8041
:100A7A0004AE25AF26D3EF9403EE94004020D3E5CD
:100A8A0010950EE50F950D400DD296C294C295C2EF
:100A9A00A4D2A6C2A522C296D294C295801ED3E53C
:100AAA0010950EE50F950D400DD296C294C295C2CF
:100ABA00A4C2A6D2A522C296C294D295D2A4C2A694
:030ACA00C2A522A0
:100ACD00D2A0C2A1C2A2C2A3AE25AF26120BBB7586
:100ADD0080FFC2A0D2A1C2A2C2A3AE25AF267C00C8
:100AED007D0A1208CBED120BC37580FFC2A0C2A107
:100AFD00D2A2C2A3AE0BAF0C120BBB7580FFC2A06E
:100B0D00C2A1C2A2D2A3AE0BAF0C7C007D0A12080B
:090B1D00CBED120BC37580FF2221
:100B2600E50A702A30900930910630920320931E10
:100B3600750A01120ACD2090037F01222091037FBE
:100B460002222092037F03222093127F04223090F8
:0F0B56000C309109309206309303E4F50A7F00CA
:010B6500226D
:100BBB007C007D0A1208CBEF25E02411F808E6F43F
:060BCB00F5807F327E0080
:0B0BD100EF1FAC0670011E4C70F622F6
:060B66008B278A28892973
:100B6C00120920FFAEF0AB2AAA2BA92C120920FDEA
:100B7C00AB27AA28A929E5F08DF012094BAB2AAABC
:090B8C002BA92CEE8FF002094B9D
:10097600020BF9E493A3F8E493A34003F68001F293
:1009860008DFF48029E493A3F85407240CC8C33382
:10099600C4540F4420C8834004F456800146F6DF51
:1009A600E4800B0102040810204080900B95E47E41
:1009B600019360BCA3FF543F30E509541FFEE49346
:1009C600A360010ECF54C025E060A840B8E493A30D
:1009D600FAE493A3F8E493A3C8C582C8CAC583CA38
:1009E600F0A3C8C582C8CAC583CADFE9DEE780BEF0
:010BBA00003A
:1008CB00BC000BBE0029EF8DF084FFADF022E4CC11
:1008DB00F875F008EF2FFFEE33FEEC33FCEE9DECDA
:1008EB00984005FCEE9DFE0FD5F0E9E4CEFD22ED20
:1008FB00F8F5F0EE8420D21CFEADF075F008EF2F6A
:10090B00FFED33FD4007985006D5F0F222C398FD5A
:05091B000FD5F0EA22F7
:10092000BB010A89828A83E0F5F0A3E022500687A2
:10093000F009E71922BBFE07E3F5F009E319228964
:0B094000828A83E493F5F07401932297
:10094B00BB010A89828A83F0E5F0A3F0225006F7F7
:0F095B0009A7F01922BBFE06F3E5F009F31922F4
:00000001FF
