:04094900020800019F
:0B093E00EF1FAC0670011E4C70F6228B
:10091E00E4FDFCC3ED9FEC9E5015E4FBFA0BBB000F
:0F092E00010ABA03F8BBE8F50DBD00010C80E427
:01093D002297
:10088C00EF4E7005F508750901E50964014508701E
:10089C003830B10930B00630B20320B32CE4F5087F
:1008AC00F5097FE87E0312093E20B1057E007F0129
:1008BC002220B0057E007F022220B2057E007F033D
:1008CC002220B3177E007F042230B10F30B00C30E1
:0E08DC00B20930B306750800750901E4FEFF8D
:0108EA0022EB
:1008EB007F017E0012088C8E0A8F0BE50A70F1E5F2
:1008FB000B24FE600E14600F146010240370E1B221
:10090B00A280DDB2A380D9B2A480D5D2A2D2A3D2C9
:03091B00A480CDE8
:03000000020800F3
:0C080000787FE4F6D8FD75810B020847F4
:10080C000208EBE493A3F8E493A34003F68001F20F
:10081C0008DFF48029E493A3F85407240CC8C333ED
:10082C00C4540F4420C8834004F456800146F6DFBC
:10083C00E4800B0102040810204080900949E47EFA
:10084C00019360BCA3FF543F30E509541FFEE493B1
:10085C00A360010ECF54C025E060A840B8E493A378
:10086C00FAE493A3F8E493A3C8C582C8CAC583CAA3
:10087C00F0A3C8C582C8CAC583CADFE9DEE780BE5B
:01094D0000A9
:00000001FF
